{"abi":[{"type":"constructor","inputs":[{"name":"_effrRate","type":"uint256","internalType":"uint256"},{"name":"_riskPremium","type":"uint256","internalType":"uint256"},{"name":"_maxLoanAmount","type":"uint256","internalType":"uint256"},{"name":"_usdc","type":"address","internalType":"address"},{"name":"_oracle","type":"address","internalType":"address"}],"stateMutability":"nonpayable"},{"type":"function","name":"BASIS_POINTS","inputs":[],"outputs":[{"name":"","type":"uint256","internalType":"uint256"}],"stateMutability":"view"},{"type":"function","name":"SCALE","inputs":[],"outputs":[{"name":"","type":"uint256","internalType":"uint256"}],"stateMutability":"view"},{"type":"function","name":"SECONDS_PER_YEAR","inputs":[],"outputs":[{"name":"","type":"uint256","internalType":"uint256"}],"stateMutability":"view"},{"type":"function","name":"addressToString","inputs":[{"name":"_address","type":"address","internalType":"address"}],"outputs":[{"name":"","type":"string","internalType":"string"}],"stateMutability":"pure"},{"type":"function","name":"basePersonalization","inputs":[],"outputs":[{"name":"","type":"uint256","internalType":"uint256"}],"stateMutability":"view"},{"type":"function","name":"clearPageRankState","inputs":[],"outputs":[],"stateMutability":"nonpayable"},{"type":"function","name":"clearPageRankStateEfficient","inputs":[],"outputs":[],"stateMutability":"nonpayable"},{"type":"function","name":"computeAttesterReward","inputs":[{"name":"loanId","type":"uint256","internalType":"uint256"},{"name":"attester","type":"address","internalType":"address"}],"outputs":[{"name":"reward","type":"uint256","internalType":"uint256"}],"stateMutability":"view"},{"type":"function","name":"computePageRank","inputs":[],"outputs":[{"name":"iterations","type":"uint256","internalType":"uint256"}],"stateMutability":"nonpayable"},{"type":"function","name":"depositFunds","inputs":[{"name":"amount","type":"uint256","internalType":"uint256"}],"outputs":[],"stateMutability":"nonpayable"},{"type":"function","name":"disburseLoan","inputs":[{"name":"loanId","type":"uint256","internalType":"uint256"}],"outputs":[],"stateMutability":"nonpayable"},{"type":"function","name":"effrRate","inputs":[],"outputs":[{"name":"","type":"uint256","internalType":"uint256"}],"stateMutability":"view"},{"type":"function","name":"getAllLoanIds","inputs":[],"outputs":[{"name":"","type":"uint256[]","internalType":"uint256[]"}],"stateMutability":"view"},{"type":"function","name":"getAllPageRankScores","inputs":[],"outputs":[{"name":"nodes","type":"address[]","internalType":"address[]"},{"name":"scores","type":"uint256[]","internalType":"uint256[]"}],"stateMutability":"view"},{"type":"function","name":"getAttesters","inputs":[],"outputs":[{"name":"","type":"address[]","internalType":"address[]"}],"stateMutability":"view"},{"type":"function","name":"getBorrowerAttestations","inputs":[{"name":"borrower","type":"address","internalType":"address"}],"outputs":[{"name":"","type":"tuple[]","internalType":"struct DecentralizedMicrocredit.Attestation[]","components":[{"name":"attester","type":"address","internalType":"address"},{"name":"weight","type":"uint256","internalType":"uint256"}]}],"stateMutability":"view"},{"type":"function","name":"getBorrowerLoanIds","inputs":[{"name":"borrower","type":"address","internalType":"address"}],"outputs":[{"name":"","type":"uint256[]","internalType":"uint256[]"}],"stateMutability":"view"},{"type":"function","name":"getBorrowers","inputs":[],"outputs":[{"name":"","type":"address[]","internalType":"address[]"}],"stateMutability":"view"},{"type":"function","name":"getBorrowersWithAttestations","inputs":[],"outputs":[{"name":"","type":"address[]","internalType":"address[]"}],"stateMutability":"view"},{"type":"function","name":"getCreditScore","inputs":[{"name":"user","type":"address","internalType":"address"}],"outputs":[{"name":"","type":"uint256","internalType":"uint256"}],"stateMutability":"view"},{"type":"function","name":"getFundingPoolAPY","inputs":[],"outputs":[{"name":"","type":"uint256","internalType":"uint256"}],"stateMutability":"view"},{"type":"function","name":"getLenders","inputs":[],"outputs":[{"name":"","type":"address[]","internalType":"address[]"}],"stateMutability":"view"},{"type":"function","name":"getLoan","inputs":[{"name":"loanId","type":"uint256","internalType":"uint256"}],"outputs":[{"name":"principal","type":"uint256","internalType":"uint256"},{"name":"outstanding","type":"uint256","internalType":"uint256"},{"name":"borrower","type":"address","internalType":"address"},{"name":"interestRate","type":"uint256","internalType":"uint256"},{"name":"isActive","type":"bool","internalType":"bool"}],"stateMutability":"view"},{"type":"function","name":"getLoanRate","inputs":[],"outputs":[{"name":"","type":"uint256","internalType":"uint256"}],"stateMutability":"view"},{"type":"function","name":"getMaxPageRankScore","inputs":[],"outputs":[{"name":"","type":"uint256","internalType":"uint256"}],"stateMutability":"view"},{"type":"function","name":"getPageRankScore","inputs":[{"name":"node","type":"address","internalType":"address"}],"outputs":[{"name":"","type":"uint256","internalType":"uint256"}],"stateMutability":"view"},{"type":"function","name":"getPoolInfo","inputs":[],"outputs":[{"name":"_totalDeposits","type":"uint256","internalType":"uint256"},{"name":"_availableFunds","type":"uint256","internalType":"uint256"},{"name":"_reservedFunds","type":"uint256","internalType":"uint256"},{"name":"_lenderCount","type":"uint256","internalType":"uint256"}],"stateMutability":"view"},{"type":"function","name":"isKYCVerified","inputs":[{"name":"","type":"address","internalType":"address"}],"outputs":[{"name":"","type":"bool","internalType":"bool"}],"stateMutability":"view"},{"type":"function","name":"kycBonus","inputs":[],"outputs":[{"name":"","type":"uint256","internalType":"uint256"}],"stateMutability":"view"},{"type":"function","name":"lenderCount","inputs":[],"outputs":[{"name":"","type":"uint256","internalType":"uint256"}],"stateMutability":"view"},{"type":"function","name":"lenderDeposits","inputs":[{"name":"","type":"address","internalType":"address"}],"outputs":[{"name":"","type":"uint256","internalType":"uint256"}],"stateMutability":"view"},{"type":"function","name":"lendingUtilizationCap","inputs":[],"outputs":[{"name":"","type":"uint256","internalType":"uint256"}],"stateMutability":"view"},{"type":"function","name":"markKYCVerified","inputs":[{"name":"user","type":"address","internalType":"address"}],"outputs":[],"stateMutability":"nonpayable"},{"type":"function","name":"maxLoanAmount","inputs":[],"outputs":[{"name":"","type":"uint256","internalType":"uint256"}],"stateMutability":"view"},{"type":"function","name":"oracle","inputs":[],"outputs":[{"name":"","type":"address","internalType":"address"}],"stateMutability":"view"},{"type":"function","name":"owner","inputs":[],"outputs":[{"name":"","type":"address","internalType":"address"}],"stateMutability":"view"},{"type":"function","name":"pagerankScores","inputs":[{"name":"","type":"address","internalType":"address"}],"outputs":[{"name":"","type":"uint256","internalType":"uint256"}],"stateMutability":"view"},{"type":"function","name":"personalizationCap","inputs":[],"outputs":[{"name":"","type":"uint256","internalType":"uint256"}],"stateMutability":"view"},{"type":"function","name":"previewLoanTerms","inputs":[{"name":"","type":"address","internalType":"address"},{"name":"principal","type":"uint256","internalType":"uint256"},{"name":"repaymentPeriod","type":"uint256","internalType":"uint256"}],"outputs":[{"name":"interestRate","type":"uint256","internalType":"uint256"},{"name":"payment","type":"uint256","internalType":"uint256"}],"stateMutability":"view"},{"type":"function","name":"recordAttestation","inputs":[{"name":"borrower","type":"address","internalType":"address"},{"name":"weight","type":"uint256","internalType":"uint256"}],"outputs":[],"stateMutability":"nonpayable"},{"type":"function","name":"registerBorrower","inputs":[{"name":"borrower","type":"address","internalType":"address"}],"outputs":[],"stateMutability":"nonpayable"},{"type":"function","name":"repayLoan","inputs":[{"name":"loanId","type":"uint256","internalType":"uint256"},{"name":"amount","type":"uint256","internalType":"uint256"}],"outputs":[],"stateMutability":"nonpayable"},{"type":"function","name":"requestLoan","inputs":[{"name":"amount","type":"uint256","internalType":"uint256"}],"outputs":[{"name":"loanId","type":"uint256","internalType":"uint256"}],"stateMutability":"nonpayable"},{"type":"function","name":"reservedLiquidity","inputs":[],"outputs":[{"name":"","type":"uint256","internalType":"uint256"}],"stateMutability":"view"},{"type":"function","name":"riskPremium","inputs":[],"outputs":[{"name":"","type":"uint256","internalType":"uint256"}],"stateMutability":"view"},{"type":"function","name":"setBasePersonalization","inputs":[{"name":"_base","type":"uint256","internalType":"uint256"}],"outputs":[],"stateMutability":"nonpayable"},{"type":"function","name":"setEffrRate","inputs":[{"name":"_effrRate","type":"uint256","internalType":"uint256"}],"outputs":[],"stateMutability":"nonpayable"},{"type":"function","name":"setKycBonus","inputs":[{"name":"_kycBonus","type":"uint256","internalType":"uint256"}],"outputs":[],"stateMutability":"nonpayable"},{"type":"function","name":"setLendingUtilizationCap","inputs":[{"name":"cap","type":"uint256","internalType":"uint256"}],"outputs":[],"stateMutability":"nonpayable"},{"type":"function","name":"setMaxLoanAmount","inputs":[{"name":"_maxLoanAmount","type":"uint256","internalType":"uint256"}],"outputs":[],"stateMutability":"nonpayable"},{"type":"function","name":"setOracle","inputs":[{"name":"_oracle","type":"address","internalType":"address"}],"outputs":[],"stateMutability":"nonpayable"},{"type":"function","name":"setPersonalizationCap","inputs":[{"name":"_cap","type":"uint256","internalType":"uint256"}],"outputs":[],"stateMutability":"nonpayable"},{"type":"function","name":"setRiskPremium","inputs":[{"name":"_riskPremium","type":"uint256","internalType":"uint256"}],"outputs":[],"stateMutability":"nonpayable"},{"type":"function","name":"totalDeposits","inputs":[],"outputs":[{"name":"","type":"uint256","internalType":"uint256"}],"stateMutability":"view"},{"type":"function","name":"totalLentOut","inputs":[],"outputs":[{"name":"","type":"uint256","internalType":"uint256"}],"stateMutability":"view"},{"type":"function","name":"usdc","inputs":[],"outputs":[{"name":"","type":"address","internalType":"contract IERC20"}],"stateMutability":"view"},{"type":"function","name":"withdrawFunds","inputs":[{"name":"amount","type":"uint256","internalType":"uint256"}],"outputs":[],"stateMutability":"nonpayable"}],"bytecode":{"object":"0x60a06040523461006d5761001d610014610190565b939290926103cf565b610025610072565b6155bd6104cd82396080518181816107b001528181611bae01528181611c940152818161223a01528181612e510152818161354701528181613b09015261439101526155bd90f35b610078565b60405190565b5f80fd5b601f801991011690565b634e487b7160e01b5f52604160045260245ffd5b906100a49061007c565b810190811060018060401b038211176100bc57604052565b610086565b906100d46100cd610072565b928361009a565b565b5f80fd5b90565b6100e6816100da565b036100ed57565b5f80fd5b905051906100fe826100dd565b565b60018060a01b031690565b61011490610100565b90565b6101208161010b565b0361012757565b5f80fd5b9050519061013882610117565b565b919060a08382031261018b57610152815f85016100f1565b9261016082602083016100f1565b9261018861017184604085016100f1565b9361017f816060860161012b565b9360800161012b565b90565b6100d6565b6101ae615a8a803803806101a3816100c1565b92833981019061013a565b9091929394565b5f1b90565b906101c65f19916101b5565b9181191691161790565b90565b90565b6101ea6101e56101ef926101d0565b6101d3565b6100da565b90565b90565b9061020a610205610211926101d6565b6101f2565b82546101ba565b9055565b90565b61022c61022761023192610215565b6101d3565b610100565b90565b61023d90610218565b90565b60209181520190565b5f7f496e76616c696420616464726573736573000000000000000000000000000000910152565b61027d6011602092610240565b61028681610249565b0190565b61029f9060208101905f818303910152610270565b90565b156102a957565b6102b1610072565b62461bcd60e51b8152806102c76004820161028a565b0390fd5b6102df6102da6102e492610100565b6101d3565b610100565b90565b6102f0906102cb565b90565b6102fc906102e7565b90565b9061031060018060a01b03916101b5565b9181191691161790565b610323906102cb565b90565b61032f9061031a565b90565b90565b9061034a61034561035192610326565b610332565b82546102ff565b9055565b61036961036461036e926100da565b6101d3565b6100da565b90565b9061038661038161038d92610355565b6101f2565b82546101ba565b9055565b90565b6103a86103a36103ad92610391565b6101d3565b6100da565b90565b90565b6103c76103c26103cc926103b0565b6101d3565b6100da565b90565b61043a906104336104489661041f61044196976103ee600160026101f5565b806104096104036103fe5f610234565b61010b565b9161010b565b1415806104a4575b61041a906102a2565b6102f3565b60805261042c335f610335565b6001610335565b6006610371565b6007610371565b6008610371565b61045f6104586305f5e100610394565b6003610371565b61047661046f6305f5e100610394565b6004610371565b61048d6104866305f5e100610394565b6005610371565b6104a261049b6123286103b3565b6018610371565b565b5061041a836104c36104bd6104b85f610234565b61010b565b9161010b565b1415905061041156fe60a06040526004361015610013575b611784565b61001d5f356103ac565b8063155dd5ee146103a75780631d123633146103a257806321e0139d1461039d578063227a09c4146103985780633906acc6146103935780633b68c2781461038e5780633b76594d146103895780633e413bee146103845780633e8b83c81461037f5780633eae7a451461037a578063449005e4146103755780634659c157146103705780634ed7e4351461036b578063504006ca1461036657806354b7636e14610361578063552c28571461035c57806358d46eb6146103575780635c1bf865146103525780635e57966d1461034d57806360246c88146103485780636268b294146103435780636854786a1461033e5780636ff9e4031461033957806372f9436514610334578063780a9cb81461032f5780637adbf9731461032a5780637d882097146103255780637dc0d1d014610320578063829268751461031b5780638a700b53146103165780638d5d3429146103115780638da5cb5b1461030c57806397fe008f1461030757806399398358146103025780639f308512146102fd578063a117d729146102f8578063a302db2a146102f3578063a7ab7c21146102ee578063abad7426146102e9578063ad475a73146102e4578063ad8615f0146102df578063aede3324146102da578063b1a9ae81146102d5578063b64660b6146102d0578063b73e4da0146102cb578063b76e053b146102c6578063c5fde85e146102c1578063c9d06a29146102bc578063cab98890146102b7578063d2227acf146102b2578063d3dd2bdf146102ad578063d7a1815d146102a8578063dfd1e108146102a3578063e1f1c4a71461029e578063e6a69ab814610299578063eaf768dd146102945763eced55260361000e5761174f565b6116e3565b6116ae565b61163f565b6115d2565b61159d565b611568565b611533565b6114ef565b6114ba565b611475565b611415565b6113e2565b6113ab565b611319565b6112e3565b611285565b611250565b61121d565b6111ea565b6111b7565b611184565b61114f565b61110b565b6110bf565b61108a565b611047565b611013565b610fb1565b610f7c565b610ef2565b610eb0565b610e7c565b610e1a565b610dd6565b610d72565b610d3d565b610cf5565b610c82565b610be2565b610baf565b610b7c565b610b47565b610a92565b6109f1565b61092a565b6108e6565b6108a4565b61086f565b61082b565b61077b565b610746565b610711565b6106cd565b61062b565b610533565b610409565b60e01c90565b60405190565b5f80fd5b5f80fd5b90565b6103cc816103c0565b036103d357565b5f80fd5b905035906103e4826103c3565b565b906020828203126103ff576103fc915f016103d7565b90565b6103bc565b5f0190565b346104375761042161041c3660046103e6565b611b58565b6104296103b2565b8061043381610404565b0390f35b6103b8565b60018060a01b031690565b6104509061043c565b90565b61045c81610447565b0361046357565b5f80fd5b9050359061047482610453565b565b9060208282031261048f5761048c915f01610467565b90565b6103bc565b5190565b60209181520190565b60200190565b6104b0906103c0565b9052565b906104c1816020936104a7565b0190565b60200190565b906104e86104e26104db84610494565b8093610498565b926104a1565b905f5b8181106104f85750505090565b90919261051161050b60019286516104b4565b946104c5565b91019190916104eb565b6105309160208201915f8184039101526104cb565b90565b346105635761055f61054e610549366004610476565b611e41565b6105566103b2565b9182918261051b565b0390f35b6103b8565b5190565b60209181520190565b60200190565b61058490610447565b9052565b906020806105aa936105a05f8201515f86019061057b565b01519101906104a7565b565b906105b981604093610588565b0190565b60200190565b906105e06105da6105d384610568565b809361056c565b92610575565b905f5b8181106105f05750505090565b90919261060961060360019286516105ac565b946105bd565b91019190916105e3565b6106289160208201915f8184039101526105c3565b90565b3461065b57610657610646610641366004610476565b611fbb565b61064e6103b2565b91829182610613565b0390f35b6103b8565b5f91031261066a57565b6103bc565b1c90565b90565b61068690600861068b930261066f565b610673565b90565b906106999154610676565b90565b6106a860175f9061068e565b90565b6106b4906103c0565b9052565b91906106cb905f602085019401906106ab565b565b346106fd576106dd366004610660565b6106f96106e861069c565b6106f06103b2565b918291826106b8565b0390f35b6103b8565b61070e60185f9061068e565b90565b3461074157610721366004610660565b61073d61072c610702565b6107346103b2565b918291826106b8565b0390f35b6103b8565b3461077657610756366004610660565b610772610761612038565b6107696103b2565b918291826106b8565b0390f35b6103b8565b346107a95761079361078e3660046103e6565b612219565b61079b6103b2565b806107a581610404565b0390f35b6103b8565b7f000000000000000000000000000000000000000000000000000000000000000090565b90565b6107e96107e46107ee9261043c565b6107d2565b61043c565b90565b6107fa906107d5565b90565b610806906107f1565b90565b610812906107fd565b9052565b9190610829905f60208501940190610809565b565b3461085b5761083b366004610660565b6108576108466107ae565b61084e6103b2565b91829182610816565b0390f35b6103b8565b61086c60075f9061068e565b90565b3461089f5761087f366004610660565b61089b61088a610860565b6108926103b2565b918291826106b8565b0390f35b6103b8565b346108d2576108bc6108b7366004610476565b612518565b6108c46103b2565b806108ce81610404565b0390f35b6103b8565b6108e360045f9061068e565b90565b34610916576108f6366004610660565b6109126109016108d7565b6109096103b2565b918291826106b8565b0390f35b6103b8565b61092760035f9061068e565b90565b3461095a5761093a366004610660565b61095661094561091b565b61094d6103b2565b918291826106b8565b0390f35b6103b8565b5190565b60209181520190565b60200190565b9061097f8160209361057b565b0190565b60200190565b906109a66109a06109998461095f565b8093610963565b9261096c565b905f5b8181106109b65750505090565b9091926109cf6109c96001928651610972565b94610983565b91019190916109a9565b6109ee9160208201915f818403910152610989565b90565b34610a2157610a01366004610660565b610a1d610a0c6125e3565b610a146103b2565b918291826109d9565b0390f35b6103b8565b610a2f90610447565b9052565b151590565b610a4190610a33565b9052565b90959492610a9094610a7f610a8992610a75608096610a6b60a088019c5f8901906106ab565b60208701906106ab565b6040850190610a26565b60608301906106ab565b0190610a38565b565b34610ac657610ac2610aad610aa83660046103e6565b61261a565b91610ab99593956103b2565b95869586610a45565b0390f35b6103b8565b610ad4906107f1565b90565b90610ae190610acb565b5f5260205260405f2090565b60ff1690565b610b03906008610b08930261066f565b610aed565b90565b90610b169154610af3565b90565b610b2f90610b2a600c915f92610ad7565b610b0b565b90565b9190610b45905f60208501940190610a38565b565b34610b7757610b73610b62610b5d366004610476565b610b19565b610b6a6103b2565b91829182610b32565b0390f35b6103b8565b34610baa57610b8c366004610660565b610b9461284c565b610b9c6103b2565b80610ba681610404565b0390f35b6103b8565b34610bdd57610bc7610bc23660046103e6565b612a56565b610bcf6103b2565b80610bd981610404565b0390f35b6103b8565b34610c1257610bf2366004610660565b610c0e610bfd612a61565b610c056103b2565b9182918261051b565b0390f35b6103b8565b5190565b60209181520190565b90825f9392825e0152565b601f801991011690565b610c58610c61602093610c6693610c4f81610c17565b93848093610c1b565b95869101610c24565b610c2f565b0190565b610c7f9160208201915f818403910152610c39565b90565b34610cb257610cae610c9d610c98366004610476565b612c90565b610ca56103b2565b91829182610c6a565b0390f35b6103b8565b610cec610cf394610ce2606094989795610cd8608086019a5f8701906106ab565b60208501906106ab565b60408301906106ab565b01906106ab565b565b34610d2957610d05366004610660565b610d25610d10612e0e565b90610d1c9492946103b2565b94859485610cb7565b0390f35b6103b8565b610d3a60055f9061068e565b90565b34610d6d57610d4d366004610660565b610d69610d58610d2e565b610d606103b2565b918291826106b8565b0390f35b6103b8565b34610da257610d82366004610660565b610d9e610d8d612f05565b610d956103b2565b918291826109d9565b0390f35b6103b8565b90610db190610acb565b5f5260205260405f2090565b610dd390610dce601e915f92610da7565b61068e565b90565b34610e0657610e02610df1610dec366004610476565b610dbd565b610df96103b2565b918291826106b8565b0390f35b6103b8565b610e1760085f9061068e565b90565b34610e4a57610e2a366004610660565b610e46610e35610e0b565b610e3d6103b2565b918291826106b8565b0390f35b6103b8565b9190604083820312610e775780610e6b610e74925f8601610467565b936020016103d7565b90565b6103bc565b34610eab57610e95610e8f366004610e4f565b90613137565b610e9d6103b2565b80610ea781610404565b0390f35b6103b8565b34610ede57610ec8610ec3366004610476565b6133b3565b610ed06103b2565b80610eda81610404565b0390f35b6103b8565b610eef600d5f9061068e565b90565b34610f2257610f02366004610660565b610f1e610f0d610ee3565b610f156103b2565b918291826106b8565b0390f35b6103b8565b60018060a01b031690565b610f42906008610f47930261066f565b610f27565b90565b90610f559154610f32565b90565b610f6460015f90610f4a565b90565b9190610f7a905f60208501940190610a26565b565b34610fac57610f8c366004610660565b610fa8610f97610f58565b610f9f6103b2565b91829182610f67565b0390f35b6103b8565b34610fe157610fc1366004610660565b610fdd610fcc6133be565b610fd46103b2565b918291826109d9565b0390f35b6103b8565b919060408382031261100e578061100261100b925f86016103d7565b936020016103d7565b90565b6103bc565b346110425761102c611026366004610fe6565b906134d8565b6110346103b2565b8061103e81610404565b0390f35b6103b8565b346110775761107361106261105d3660046103e6565b613a04565b61106a6103b2565b918291826106b8565b0390f35b6103b8565b6110875f5f90610f4a565b90565b346110ba5761109a366004610660565b6110b66110a561107c565b6110ad6103b2565b91829182610f67565b0390f35b6103b8565b346110ed576110d76110d23660046103e6565b613d70565b6110df6103b2565b806110e981610404565b0390f35b6103b8565b611108906111036009915f92610da7565b61068e565b90565b3461113b57611137611126611121366004610476565b6110f2565b61112e6103b2565b918291826106b8565b0390f35b6103b8565b61114c60195f9061068e565b90565b3461117f5761115f366004610660565b61117b61116a611140565b6111726103b2565b918291826106b8565b0390f35b6103b8565b346111b25761119c6111973660046103e6565b613db7565b6111a46103b2565b806111ae81610404565b0390f35b6103b8565b346111e5576111cf6111ca3660046103e6565b613dfe565b6111d76103b2565b806111e181610404565b0390f35b6103b8565b34611218576111fa366004610660565b611202613e09565b61120a6103b2565b8061121481610404565b0390f35b6103b8565b3461124b57611235611230366004610476565b613f5c565b61123d6103b2565b8061124781610404565b0390f35b6103b8565b346112805761127c61126b611266366004610476565b614004565b6112736103b2565b918291826106b8565b0390f35b6103b8565b346112b35761129d6112983660046103e6565b61405f565b6112a56103b2565b806112af81610404565b0390f35b6103b8565b90916112d26112e09360408401908482035f860152610989565b9160208184039101526104cb565b90565b34611314576112f3366004610660565b6112fb61410a565b906113106113076103b2565b928392836112b8565b0390f35b6103b8565b3461134957611329366004610660565b6113456113346141b0565b61133c6103b2565b918291826106b8565b0390f35b6103b8565b909160608284031261138357611380611369845f8501610467565b9361137781602086016103d7565b936040016103d7565b90565b6103bc565b9160206113a99294936113a260408201965f8301906106ab565b01906106ab565b565b346113dd576113c46113be36600461134e565b9161427f565b906113d96113d06103b2565b92839283611388565b0390f35b6103b8565b34611410576113fa6113f53660046103e6565b614315565b6114026103b2565b8061140c81610404565b0390f35b6103b8565b346114435761142d6114283660046103e6565b6144ad565b6114356103b2565b8061143f81610404565b0390f35b6103b8565b9190604083820312611470578061146461146d925f86016103d7565b93602001610467565b90565b6103bc565b346114a6576114a261149161148b366004611448565b906144d7565b6114996103b2565b918291826106b8565b0390f35b6103b8565b6114b760065f9061068e565b90565b346114ea576114ca366004610660565b6114e66114d56114ab565b6114dd6103b2565b918291826106b8565b0390f35b6103b8565b3461151f576114ff366004610660565b61151b61150a614669565b6115126103b2565b918291826106b8565b0390f35b6103b8565b611530600e5f9061068e565b90565b3461156357611543366004610660565b61155f61154e611524565b6115566103b2565b918291826106b8565b0390f35b6103b8565b346115985761159461158361157e366004610476565b6146b1565b61158b6103b2565b918291826106b8565b0390f35b6103b8565b346115cd576115ad366004610660565b6115c96115b861474c565b6115c06103b2565b918291826106b8565b0390f35b6103b8565b34611602576115e2366004610660565b6115fe6115ed61484a565b6115f56103b2565b918291826109d9565b0390f35b6103b8565b90565b61161e61161961162392611607565b6107d2565b6103c0565b90565b61163161271061160a565b90565b61163c611626565b90565b3461166f5761164f366004610660565b61166b61165a611634565b6116626103b2565b918291826106b8565b0390f35b6103b8565b90565b61168b61168661169092611674565b6107d2565b6103c0565b90565b6116a06301e13380611677565b90565b6116ab611693565b90565b346116de576116be366004610660565b6116da6116c96116a3565b6116d16103b2565b918291826106b8565b0390f35b6103b8565b34611711576116fb6116f63660046103e6565b614a63565b6117036103b2565b8061170d81610404565b0390f35b6103b8565b90565b61172d61172861173292611716565b6107d2565b6103c0565b90565b611741620f4240611719565b90565b61174c611735565b90565b3461177f5761175f366004610660565b61177b61176a611744565b6117726103b2565b918291826106b8565b0390f35b6103b8565b5f80fd5b90565b61179f61179a6117a492611788565b6107d2565b6103c0565b90565b5f7f416d6f756e74203e203000000000000000000000000000000000000000000000910152565b6117db600a602092610c1b565b6117e4816117a7565b0190565b6117fd9060208101905f8183039101526117ce565b90565b1561180757565b61180f6103b2565b62461bcd60e51b815280611825600482016117e8565b0390fd5b5f1c90565b61183a61183f91611829565b610673565b90565b61184c905461182e565b90565b5f7f496e73756666696369656e742062616c616e6365000000000000000000000000910152565b6118836014602092610c1b565b61188c8161184f565b0190565b6118a59060208101905f818303910152611876565b90565b156118af57565b6118b76103b2565b62461bcd60e51b8152806118cd60048201611890565b0390fd5b6118da906107f1565b90565b634e487b7160e01b5f52604160045260245ffd5b906118fb90610c2f565b810190811067ffffffffffffffff82111761191557604052565b6118dd565b60e01b90565b9050519061192d826103c3565b565b9060208282031261194857611945915f01611920565b90565b6103bc565b6119556103b2565b3d5f823e3d90fd5b634e487b7160e01b5f52601160045260245ffd5b611980611986919392936103c0565b926103c0565b820391821161199157565b61195d565b5f7f496e73756666696369656e74206c697175696469747900000000000000000000910152565b6119ca6016602092610c1b565b6119d381611996565b0190565b6119ec9060208101905f8183039101526119bd565b90565b156119f657565b6119fe6103b2565b62461bcd60e51b815280611a14600482016119d7565b0390fd5b5f1b90565b90611a295f1991611a18565b9181191691161790565b611a47611a42611a4c926103c0565b6107d2565b6103c0565b90565b90565b90611a67611a62611a6e92611a33565b611a4f565b8254611a1d565b9055565b611a7b81610a33565b03611a8257565b5f80fd5b90505190611a9382611a72565b565b90602082820312611aae57611aab915f01611a86565b90565b6103bc565b916020611ad4929493611acd60408201965f830190610a26565b01906106ab565b565b5f7f5472616e73666572206661696c65640000000000000000000000000000000000910152565b611b0a600f602092610c1b565b611b1381611ad6565b0190565b611b2c9060208101905f818303910152611afd565b90565b15611b3657565b611b3e6103b2565b62461bcd60e51b815280611b5460048201611b17565b0390fd5b611b7481611b6e611b685f61178b565b916103c0565b11611800565b611ba4611b8b611b8660093390610da7565b611842565b611b9d611b97846103c0565b916103c0565b10156118a8565b611c046020611bd27f00000000000000000000000000000000000000000000000000000000000000006107fd565b6370a0823190611bf9611be4306118d1565b92611bed6103b2565b9586948593849361191a565b835260048301610f67565b03915afa908115611d6657611c4891611c2f915f91611d38575b50611c296019611842565b90611971565b611c41611c3b846103c0565b916103c0565b10156119ef565b611c7081611c6a611c5b60093390610da7565b91611c6583611842565b611971565b90611a52565b611c8d611c8682611c81600d611842565b611971565b600d611a52565b6020611cb87f00000000000000000000000000000000000000000000000000000000000000006107fd565b9163a9059cbb92611cdd5f339395611ce8611cd16103b2565b9788968795869461191a565b845260048401611ab3565b03925af18015611d3357611d03915f91611d05575b50611b2f565b565b611d26915060203d8111611d2c575b611d1e81836118f1565b810190611a95565b5f611cfd565b503d611d14565b61194d565b611d59915060203d8111611d5f575b611d5181836118f1565b81019061192f565b5f611c1e565b503d611d47565b61194d565b606090565b90611d7a90610acb565b5f5260205260405f2090565b5490565b60209181520190565b5f5260205f2090565b611da6905461182e565b90565b60010190565b90611dcc611dc6611dbf84611d86565b8093611d8a565b92611d93565b905f5b818110611ddc5750505090565b909192611dfc611df6600192611df187611d9c565b6104b4565b94611da9565b9101919091611dcf565b90611e1091611daf565b90565b90611e33611e2c92611e236103b2565b93848092611e06565b03836118f1565b565b611e3e90611e13565b90565b611e58611e5d91611e50611d6b565b506013611d70565b611e35565b90565b606090565b90611e6f90610acb565b5f5260205260405f2090565b5490565b90611e92611e8b6103b2565b92836118f1565b565b67ffffffffffffffff8111611eac5760208091020190565b6118dd565b90611ec3611ebe83611e94565b611e7f565b918252565b5f5260205f2090565b611edd611ee291611829565b610f27565b90565b611eef9054611ed1565b90565b90611efc90610447565b9052565b90611f0a906103c0565b9052565b611f186040611e7f565b90565b90611f52611f496001611f2c611f0e565b94611f43611f3b5f8301611ee5565b5f8801611ef2565b01611842565b60208401611f00565b565b611f5d90611f1b565b90565b90611f6a82611e7b565b611f7381611eb1565b92611f816020850191611ec8565b5f915b838310611f915750505050565b60026020600192611fa185611f54565b815201920192019190611f84565b611fb890611f60565b90565b611fd2611fd791611fca611e60565b50600b611e65565b611faf565b90565b5f90565b90565b611ff5611ff0611ffa92611fde565b6107d2565b6103c0565b90565b61200962014c08611fe1565b90565b90565b61202361201e6120289261200c565b6107d2565b6103c0565b90565b612035606461200f565b90565b612040611fda565b5061206661204c611ffd565b60649061206061205a61202b565b9261200f565b90614a9c565b90565b604090612092612099949695939661208860608401985f850190610a26565b6020830190610a26565b01906106ab565b565b6120aa6120b0919392936103c0565b926103c0565b82018092116120bb57565b61195d565b6120cc6120d191611829565b610aed565b90565b6120de90546120c0565b90565b906120ed60ff91611a18565b9181191691161790565b61210090610a33565b90565b90565b9061211b612116612122926120f7565b612103565b82546120e1565b9055565b90565b61213d61213861214292612126565b6107d2565b6103c0565b90565b90565b5f5260205f2090565b634e487b7160e01b5f52603260045260245ffd5b5490565b61217281612165565b82101561218c57612184600191612148565b910201905f90565b612151565b1b90565b919060086121b59102916121af60018060a01b0384612191565b92612191565b9181191691161790565b90565b91906121d86121d36121e093610acb565b6121bf565b908354612195565b9055565b9081549168010000000000000000831015612214578261220c91600161221295018155612169565b906121c2565b565b6118dd565b6122358161222f6122295f61178b565b916103c0565b11611800565b61225e7f00000000000000000000000000000000000000000000000000000000000000006107fd565b9060206323b872dd92339061228f5f612276306118d1565b9661229a876122836103b2565b998a978896879561191a565b855260048501612069565b03925af19182156123a2576122fb926122ba915f91612374575b50611b2f565b6122d76122d0826122cb600d611842565b61209b565b600d611a52565b6122f56122e660093390610da7565b916122f083611842565b61209b565b90611a52565b61231861231261230d600f3390610ad7565b6120d4565b15610a33565b61231f575b565b6123356001612330600f3390610ad7565b612106565b61235b6123546123456001612129565b61234f600e611842565b61209b565b600e611a52565b61236f6123686014612145565b33906121e4565b61231d565b612395915060203d811161239b575b61238d81836118f1565b810190611a95565b5f6122b4565b503d612383565b61194d565b5f7f4f7261636c65206f6e6c79000000000000000000000000000000000000000000910152565b6123db600b602092610c1b565b6123e4816123a7565b0190565b6123fd9060208101905f8183039101526123ce565b90565b1561240757565b61240f6103b2565b62461bcd60e51b815280612425600482016123e8565b0390fd5b612457906124523361244c6124466124416001611ee5565b610447565b91610447565b14612400565b6124db565b565b5f7f416c726561647920766572696669656400000000000000000000000000000000910152565b61248d6010602092610c1b565b61249681612459565b0190565b6124af9060208101905f818303910152612480565b90565b156124b957565b6124c16103b2565b62461bcd60e51b8152806124d76004820161249a565b0390fd5b612516906125046124ff6124f96124f4600c8590610ad7565b6120d4565b15610a33565b6124b2565b612511600191600c610ad7565b612106565b565b61252190612429565b565b606090565b5490565b60209181520190565b5f5260205f2090565b6125489054611ed1565b90565b60010190565b9061256e61256861256184612528565b809361252c565b92612535565b905f5b81811061257e5750505090565b90919261259e6125986001926125938761253e565b610972565b9461254b565b9101919091612571565b906125b291612551565b90565b906125d56125ce926125c56103b2565b938480926125a8565b03836118f1565b565b6125e0906125b5565b90565b6125eb612523565b506125f660156125d7565b90565b5f90565b5f90565b9061260b90611a33565b5f5260205260405f2090565b90565b61265561265a91612629611fda565b50612632611fda565b5061263b6125f9565b50612644611fda565b5061264d6125fd565b50600a612601565b612617565b906126665f8301611842565b9161267360018201611842565b9261268060028301611ee5565b92612699600461269260038601611842565b94016120d4565b919493929190565b60016126ad91016103c0565b90565b6126b981612528565b8210156126d3576126cb600191612535565b910201905f90565b612151565b906126e290610acb565b5f5260205260405f2090565b6126fd612703919392936103c0565b926103c0565b9161270f8382026103c0565b92818404149015171561271e57565b61195d565b600190818003010490565b919060086127499102916127435f1984612191565b92612191565b9181191691161790565b919061276961276461277193611a33565b611a4f565b90835461272e565b9055565b61278791612781611fda565b91612753565b565b5b818110612795575050565b806127a25f600193612775565b0161278a565b90918281106127b7575b505050565b6127d56127cf6127c96127e095612723565b92612723565b92612535565b918201910190612789565b5f80806127b2565b90680100000000000000008111612811578161280661280f93612528565b908281556127a8565b565b6118dd565b5f612820916127e8565b565b634e487b7160e01b5f525f60045260245ffd5b905f036128475761284590612816565b565b612822565b6128555f61178b565b5b8061287261286c612867601a612528565b6103c0565b916103c0565b101561298a5761288d612887601a83906126b0565b90610f4a565b916128a35f61289e601b8690610ad7565b612106565b6128c06128af5f61178b565b6128bb601e8690610da7565b611a52565b6128dd6128cc5f61178b565b6128d8601d8690610da7565b611a52565b6128e65f61178b565b5b806129036128fd6128f8601a612528565b6103c0565b916103c0565b1015612979576129749061296f61292561291f601a84906126b0565b90610f4a565b61294c6129315f61178b565b612947612940601c8b906126d8565b8490610da7565b611a52565b61296a6129585f61178b565b91612965601f8a906126d8565b610da7565b611a52565b6126a1565b6128e7565b509150612985906126a1565b612856565b506129965f601a612835565b565b5f7f4f776e6572206f6e6c7900000000000000000000000000000000000000000000910152565b6129cc600a602092610c1b565b6129d581612998565b0190565b6129ee9060208101905f8183039101526129bf565b90565b156129f857565b612a006103b2565b62461bcd60e51b815280612a16600482016129d9565b0390fd5b612a4790612a4233612a3c612a36612a315f611ee5565b610447565b91610447565b146129f1565b612a49565b565b612a54906004611a52565b565b612a5f90612a1a565b565b612a69611d6b565b50612a746010611e35565b90565b606090565b60601b90565b612a8b90612a7c565b90565b612a9790612a82565b90565b612aa6612aab91610447565b612a8e565b9052565b612abb81601493612a9a565b0190565b90565b612ad6612ad1612adb92612abf565b6107d2565b6103c0565b90565b67ffffffffffffffff8111612afc57612af8602091610c2f565b0190565b6118dd565b90612b13612b0e83612ade565b611e7f565b918252565b369037565b90612b42612b2a83612b01565b92602080612b388693612ade565b9201910390612b18565b565b600360fc1b90565b5190565b90612b5a82612b4c565b811015612b6c57600160209102010190565b612151565b600f60fb1b90565b90565b612b90612b8b612b9592612b79565b6107d2565b6103c0565b90565b60ff60f81b1690565b612bab9051612b98565b90565b60f81c90565b60ff1690565b612bce612bc9612bd392612bb4565b6107d2565b612bb4565b90565b612be2612be791612bae565b612bba565b90565b90565b612c01612bfc612c0692612bea565b6107d2565b612bb4565b90565b612c2890612c22612c1c612c2d94612bb4565b91612bb4565b9061066f565b612bb4565b90565b90565b612c47612c42612c4c92612c30565b6107d2565b6103c0565b90565b90565b612c66612c61612c6b92612c4f565b6107d2565b612bb4565b90565b90565b612c85612c80612c8a92612c6e565b6107d2565b6103c0565b90565b90565b612cc3612cb491612c9f612a77565b50612ca86103b2565b92839160208301612aaf565b602082018103825203826118f1565b90612cd6612cd1602a612ac2565b612b1d565b612cde612b44565b612cf582612cef5f935f1a9361178b565b90612b50565b53612cfe612b71565b612d1682612d106001935f1a93612129565b90612b50565b53612d205f61178b565b5b80612d35612d2f6014612b7c565b916103c0565b1015612dff57612dfa90612dbf612d5d612d58612d53888590612b50565b612ba1565b612bd6565b612d79612d7482612d6e6004612bed565b90612c09565b614c73565b612dae8691612da56002612da0612d9a89612d946002612c33565b906126ee565b91612c33565b61209b565b905f1a92612b50565b53612db9600f612c52565b16614c73565b612df48491612deb6003612de6612de087612dda6002612c33565b906126ee565b91612c71565b61209b565b905f1a92612b50565b536126a1565b612d21565b50612e0b919250612c8d565b90565b612e16611fda565b50612e1f611fda565b50612e28611fda565b50612e31611fda565b50612e3c600d611842565b90612e476019611842565b612ea76020612e757f00000000000000000000000000000000000000000000000000000000000000006107fd565b6370a0823190612e9c612e87306118d1565b92612e906103b2565b9586948593849361191a565b835260048301610f67565b03915afa8015612f0057612ec4915f91612ed2575b508290611971565b91612ecf600e611842565b90565b612ef3915060203d8111612ef9575b612eeb81836118f1565b81019061192f565b5f612ebc565b503d612ee1565b61194d565b612f0d612523565b50612f1860116125d7565b90565b5f7f57656967687420746f6f20686967680000000000000000000000000000000000910152565b612f4f600f602092610c1b565b612f5881612f1b565b0190565b612f719060208101905f818303910152612f42565b90565b15612f7b57565b612f836103b2565b62461bcd60e51b815280612f9960048201612f5c565b0390fd5b5f7f53656c662d6174746573746174696f6e00000000000000000000000000000000910152565b612fd16010602092610c1b565b612fda81612f9d565b0190565b612ff39060208101905f818303910152612fc4565b90565b15612ffd57565b6130056103b2565b62461bcd60e51b81528061301b60048201612fde565b0390fd5b90565b5490565b5f5260205f2090565b61303881613022565b8210156130525761304a600291613026565b910201905f90565b612151565b6130616040611e7f565b90565b61306e9051610447565b90565b9061308260018060a01b0391611a18565b9181191691161790565b906130a161309c6130a892610acb565b6121bf565b8254613071565b9055565b6130b690516103c0565b90565b906130e4602060016130ea946130dc5f82016130d65f8801613064565b9061308c565b0192016130ac565b90611a52565b565b91906130fd576130fb916130b9565b565b612822565b9081549168010000000000000000831015613132578261312a9160016131309501815561302f565b906130ec565b565b6118dd565b6131c66131cb916131628461315b613155613150611735565b6103c0565b916103c0565b1115612f74565b61317f8161317861317233610447565b91610447565b1415612ff6565b61319c61319661319160163390610ad7565b6120d4565b15610a33565b613279575b6131aa33614cd5565b6131b381614cd5565b6131bf33828691614d2a565b600b611e65565b61301f565b6131d45f61178b565b5b806131f06131ea6131e585613022565b6103c0565b916103c0565b101561324a5761320c5f61320584849061302f565b5001611ee5565b61321e61321833610447565b91610447565b146132315761322c906126a1565b6131d5565b613241600191613248949361302f565b5001611a52565b565b5090613277916132723392613269613260613057565b945f8601611ef2565b60208401611f00565b613102565b565b61328f600161328a60163390610ad7565b612106565b6132a361329c6015612145565b33906121e4565b6131a1565b6132d5906132d0336132ca6132c46132bf5f611ee5565b610447565b91610447565b146129f1565b613381565b565b6132eb6132e66132f092611788565b6107d2565b61043c565b90565b6132fc906132d7565b90565b5f7f496e76616c6964206f7261636c65000000000000000000000000000000000000910152565b613333600e602092610c1b565b61333c816132ff565b0190565b6133559060208101905f818303910152613326565b90565b1561335f57565b6133676103b2565b62461bcd60e51b81528061337d60048201613340565b0390fd5b6133b1906133aa816133a361339d6133985f6132f3565b610447565b91610447565b1415613358565b600161308c565b565b6133bc906132a8565b565b6133c6612523565b506133d160146125d7565b90565b5f7f4c6f616e20696e61637469766500000000000000000000000000000000000000910152565b613408600d602092610c1b565b613411816133d4565b0190565b61342a9060208101905f8183039101526133fb565b90565b1561343457565b61343c6103b2565b62461bcd60e51b81528061345260048201613415565b0390fd5b5f7f426f72726f776572206f6e6c7900000000000000000000000000000000000000910152565b61348a600d602092610c1b565b61349381613456565b0190565b6134ac9060208101905f81830391015261347d565b90565b156134b657565b6134be6103b2565b62461bcd60e51b8152806134d460048201613497565b0390fd5b6134e66134eb91600a612601565b612617565b6134ff6134fa600483016120d4565b61342d565b6135263361352061351a61351560028601611ee5565b610447565b91610447565b146134af565b6135428261353c6135365f61178b565b916103c0565b11611800565b61356b7f00000000000000000000000000000000000000000000000000000000000000006107fd565b60206323b872dd91339061359b5f613582306118d1565b956135a68961358f6103b2565b9889978896879561191a565b855260048501612069565b03925af18015613688576135c1915f9161365a575b50611b2f565b816135df6135d96135d460018501611842565b6103c0565b916103c0565b10155f1461363557613632915061361361360c6135fd5f8401611842565b6136076017611842565b611971565b6017611a52565b61362861361f5f61178b565b60018301611a52565b60045f9101612106565b5b565b61364f60016136559392019161364a83611842565b611971565b90611a52565b613633565b61367b915060203d8111613681575b61367381836118f1565b810190611a95565b5f6135bb565b503d613669565b61194d565b5f7f53636f7265203e20300000000000000000000000000000000000000000000000910152565b6136c16009602092610c1b565b6136ca8161368d565b0190565b6136e39060208101905f8183039101526136b4565b90565b156136ed57565b6136f56103b2565b62461bcd60e51b81528061370b600482016136ce565b0390fd5b634e487b7160e01b5f52601260045260245ffd5b61372f613735916103c0565b916103c0565b908115613740570490565b61370f565b5f7f416d6f756e742065786365656473206d6178696d756d20666f722073636f7265910152565b61377860208092610c1b565b61378181613745565b0190565b61379a9060208101905f81830391015261376c565b90565b156137a457565b6137ac6103b2565b62461bcd60e51b8152806137c260048201613785565b0390fd5b5f7f506f6f6c207574696c69736174696f6e20636170206578636565646564000000910152565b6137fa601d602092610c1b565b613803816137c6565b0190565b61381c9060208101905f8183039101526137ed565b90565b1561382657565b61382e6103b2565b62461bcd60e51b81528061384460048201613807565b0390fd5b5f7f496e73756666696369656e7420617661696c61626c65206c6971756964697479910152565b61387b60208092610c1b565b61388481613848565b0190565b61389d9060208101905f81830391015261386f565b90565b156138a757565b6138af6103b2565b62461bcd60e51b8152806138c560048201613888565b0390fd5b6138d2906103c0565b5f1981146138e05760010190565b61195d565b6138ef60a0611e7f565b90565b906138fc90610a33565b9052565b61390a9051610a33565b90565b9061398360806004613989946139305f820161392a5f88016130ac565b90611a52565b61394960018201613943602088016130ac565b90611a52565b6139626002820161395c60408801613064565b9061308c565b61397b60038201613975606088016130ac565b90611a52565b019201613900565b90612106565b565b906139959161390d565b565b90565b5f5260205f2090565b5490565b6139b0816139a3565b8210156139ca576139c260019161399a565b910201905f90565b612151565b90815491680100000000000000008310156139ff57826139f79160016139fd950181556139a7565b90612753565b565b6118dd565b90613a0d611fda565b50613a2a82613a24613a1e5f61178b565b916103c0565b11611800565b613a8f613a75613a39336146b1565b613a5581613a4f613a495f61178b565b916103c0565b116136e6565b613a70613a626008611842565b613a6a611735565b90613723565b6126ee565b613a88613a8285926103c0565b916103c0565b111561379d565b613aff613ab9613ab2613aa26019611842565b613aac6017611842565b9061209b565b849061209b565b613af8613af2613aed613adf613acf600d611842565b613ad96018611842565b906126ee565b613ae7611626565b90613723565b6103c0565b916103c0565b111561381f565b613b5f6020613b2d7f00000000000000000000000000000000000000000000000000000000000000006107fd565b6370a0823190613b54613b3f306118d1565b92613b486103b2565b9586948593849361191a565b835260048301610f67565b03915afa8015613d2f57613ba2915f91613d01575b50613b9b613b95613b908693613b8a6019611842565b90611971565b6103c0565b916103c0565b11156138a0565b613bbf613bb883613bb36019611842565b61209b565b6019611a52565b613c7c613bcc6002611842565b613bdf613bd8826138c9565b6002611a52565b92613c6b613c00613bf06006611842565b613bfa6007611842565b9061209b565b613c62613c28613c22613c148685906126ee565b613c1c611626565b90613723565b8561209b565b91613c5933613c50600195613c47613c3e6138e5565b995f8b01611f00565b60208901611f00565b60408701611ef2565b60608501611f00565b608083016138f2565b613c77600a8590612601565b61398b565b613c90613c896010613997565b83906139cf565b613cad613ca7613ca260123390610ad7565b6120d4565b15610a33565b613cd2575b613cd0613cc9613cc460133390611d70565b613997565b83906139cf565b565b613ce86001613ce360123390610ad7565b612106565b613cfc613cf56011612145565b33906121e4565b613cb2565b613d22915060203d8111613d28575b613d1a81836118f1565b81019061192f565b5f613b74565b503d613d10565b61194d565b613d6190613d5c33613d56613d50613d4b5f611ee5565b610447565b91610447565b146129f1565b613d63565b565b613d6e906005611a52565b565b613d7990613d34565b565b613da890613da333613d9d613d97613d925f611ee5565b610447565b91610447565b146129f1565b613daa565b565b613db5906007611a52565b565b613dc090613d7b565b565b613def90613dea33613de4613dde613dd95f611ee5565b610447565b91610447565b146129f1565b613df1565b565b613dfc906003611a52565b565b613e0790613dc2565b565b613e125f61178b565b5b80613e2f613e29613e24601a612528565b6103c0565b916103c0565b1015613ea657613ea190613e9c613e51613e4b601a84906126b0565b90610f4a565b613e665f613e61601b8490610ad7565b612106565b613e83613e725f61178b565b613e7e601e8490610da7565b611a52565b613e97613e8f5f61178b565b91601d610da7565b611a52565b6126a1565b613e13565b50613eb25f601a612835565b565b60207f7220626f72726f77657273000000000000000000000000000000000000000000917f4f6e6c79206f776e6572206f72206f7261636c652063616e20726567697374655f8201520152565b613f0e602b604092610c1b565b613f1781613eb4565b0190565b613f309060208101905f818303910152613f01565b90565b15613f3a57565b613f426103b2565b62461bcd60e51b815280613f5860048201613f1b565b0390fd5b33613f77613f71613f6c5f611ee5565b610447565b91610447565b148015613fdc575b613f8890613f33565b613fa5613f9f613f9a60128490610ad7565b6120d4565b15610a33565b613fad575b50565b613fd690613fc76001613fc260128490610ad7565b612106565b613fd16011612145565b6121e4565b5f613faa565b50613f8833613ffc613ff6613ff16001611ee5565b610447565b91610447565b149050613f7f565b61401b61402091614013611fda565b50601e610da7565b611842565b90565b6140509061404b3361404561403f61403a5f611ee5565b610447565b91610447565b146129f1565b614052565b565b61405d906006611a52565b565b61406890614023565b565b67ffffffffffffffff81116140825760208091020190565b6118dd565b906140996140948361406a565b611e7f565b918252565b369037565b906140c86140b083614087565b926020806140be869361406a565b920191039061409e565b565b906140d48261095f565b8110156140e5576020809102010190565b612151565b906140f482610494565b811015614105576020809102010190565b612151565b614112612523565b5061411b611d6b565b50614126601a6125d7565b906141386141338361095f565b6140a3565b6141415f61178b565b5b8061415d6141576141528761095f565b6103c0565b916103c0565b10156141ac576141a7906141a261419061418b601e6141856141808a87906140ca565b613064565b90610da7565b611842565b61419d85918490926140ea565b611f00565b6126a1565b614142565b5090565b6141b8611fda565b506141c3600d611842565b6141d56141cf5f61178b565b916103c0565b14614254576142516142436142216142116142036141f36017611842565b6141fd6019611842565b9061209b565b61420b611626565b906126ee565b61421b600d611842565b90613723565b61423e61422e6006611842565b6142386007611842565b9061209b565b6126ee565b61424b611626565b90613723565b90565b61425d5f61178b565b90565b90565b61427761427261427c92614260565b6107d2565b6103c0565b90565b5091906143129061428e611fda565b50614297611fda565b5061430c6142f96142bb6142ab6006611842565b6142b56007611842565b9061209b565b956142f36142d46142cd838a906126ee565b86906126ee565b6142ed6142df611626565b6142e7611693565b906126ee565b90613723565b9061209b565b9161430662278d00614263565b90613723565b90613723565b90565b61432361432891600a612601565b612617565b61433c614337600483016120d4565b61342d565b61436361435c61434d5f8401611842565b6143576019611842565b611971565b6019611a52565b61438a6143836143745f8401611842565b61437e6017611842565b61209b565b6017611a52565b60206143b57f00000000000000000000000000000000000000000000000000000000000000006107fd565b9163a9059cbb926143ef5f6143d7816143d060028701611ee5565b9501611842565b956143fa6143e36103b2565b9788968795869461191a565b845260048401611ab3565b03925af1801561446c57614416915f9161443e575b5015610a33565b61441c57565b6144246103b2565b62461bcd60e51b81528061443a60048201611b17565b0390fd5b61445f915060203d8111614465575b61445781836118f1565b810190611a95565b5f61440f565b503d61444d565b61194d565b61449e906144993361449361448d6144885f611ee5565b610447565b91610447565b146129f1565b6144a0565b565b6144ab906008611a52565b565b6144b690614471565b565b90565b6144cf6144ca6144d4926144b8565b6107d2565b6103c0565b90565b6144ee6144f3916144e6611fda565b50600a612601565b612617565b9061451361450e600b61450860028601611ee5565b90611e65565b61301f565b9061451d5f61178b565b936145275f61178b565b6145305f61178b565b955b8661454d61454761454288613022565b6103c0565b916103c0565b10156145d6576145749061456e6001614567888b9061302f565b5001611842565b9061209b565b9561458b5f61458487849061302f565b5001611ee5565b61459d61459786610447565b91610447565b146145b2575b6145ac906126a1565b95614532565b90506145ac6145ce60016145c787859061302f565b5001611842565b9190506145a3565b93509391509350816145f06145ea5f61178b565b916103c0565b14801561464f575b6146405761463d926146336146256146145f6146389501611842565b61461f61c3506144bb565b906126ee565b61462d611735565b90613723565b6126ee565b613723565b90565b50505061464c5f61178b565b90565b508261466361465d5f61178b565b916103c0565b146145f8565b614671611fda565b5061468f61467f6006611842565b6146896007611842565b9061209b565b90565b90565b6146a96146a46146ae92614692565b6107d2565b6103c0565b90565b6146c86146cd916146c0611fda565b50601e610da7565b611842565b6146d561474c565b90816146e96146e35f61178b565b916103c0565b1461473e5761473b9161470a61470f926147046103e8614695565b906126ee565b613723565b61473561472461471d611735565b83906126ee565b9161472f606461200f565b9061209b565b90613723565b90565b50506147495f61178b565b90565b614754611fda565b5061475e5f61178b565b6147675f61178b565b5b8061478461477e614779601a612528565b6103c0565b916103c0565b10156147e6576147b16147ac6147a561479f601a85906126b0565b90610f4a565b601e610da7565b611842565b806147c46147be856103c0565b916103c0565b116147d9575b506147d4906126a1565b614768565b6147d491925091906147ca565b5090565b67ffffffffffffffff81116148025760208091020190565b6118dd565b90614819614814836147ea565b611e7f565b918252565b369037565b9061484861483083614807565b9260208061483e86936147ea565b920191039061481e565b565b614852612523565b50614865614860601a612528565b614823565b9061486f5f61178b565b916148795f61178b565b5b8061489661489061488b601a612528565b6103c0565b916103c0565b1015614916576148b16148ab601a83906126b0565b90610f4a565b6148c56148c0600b8390611e65565b611e7b565b6148d76148d15f61178b565b916103c0565b116148ec575b506148e7906126a1565b61487a565b6148e7919461490a61490f9261490586918490926140ca565b611ef2565b6138c9565b93906148dd565b5061492083614823565b9161492a5f61178b565b5b8061493e614938876103c0565b916103c0565b101561497a576149759061497061495e6149598684906140ca565b613064565b61496b87918490926140ca565b611ef2565b6126a1565b61492b565b5092505090565b6149ae906149a9336149a361499d6149985f611ee5565b610447565b91610447565b146129f1565b614a32565b565b5f7f4361702063616e6e6f7420657863656564203130302500000000000000000000910152565b6149e46016602092610c1b565b6149ed816149b0565b0190565b614a069060208101905f8183039101526149d7565b90565b15614a1057565b614a186103b2565b62461bcd60e51b815280614a2e600482016149f1565b0390fd5b614a6190614a5a81614a53614a4d614a48611626565b6103c0565b916103c0565b1115614a09565b6018611a52565b565b614a6c90614981565b565b90565b614a85614a80614a8a92614a6e565b6107d2565b6103c0565b90565b614a99620186a0614a71565b90565b9190614aa6611fda565b50614ab1601a612528565b614ac3614abd5f61178b565b916103c0565b14614bbe57614ae3614ad3614a8d565b614add601a612528565b90613723565b93614aed5f61178b565b5b80614b0a614b04614aff601a612528565b6103c0565b916103c0565b1015614b4757614b4290614b3d614b2c614b26601a84906126b0565b90610f4a565b614b388991601e610da7565b611a52565b6126a1565b614aee565b5091935091614b54614d73565b614b5c614f48565b91614b665f61178b565b5f5b81614b7b614b75886103c0565b916103c0565b109081614bad575b5015614ba457614b9e614b988488879161517a565b916138c9565b90614b68565b93509350505090565b614bb8915015610a33565b5f614b83565b505050614bca5f61178b565b90565b5f90565b90565b614be8614be3614bed92614bd1565b6107d2565b612bb4565b90565b90565b614c07614c02614c0c92614bf0565b6107d2565b612bb4565b90565b614c1b614c2191612bb4565b91612bb4565b019060ff8211614c2d57565b61195d565b60f81b90565b614c4c614c47614c5192612bb4565b614c32565b612b98565b90565b90565b614c6b614c66614c7092614c54565b6107d2565b612bb4565b90565b614c7b614bcd565b5080614c90614c8a600a614bd4565b91612bb4565b105f14614cb657614cae614cb391614ca86030614c57565b90614c0f565b614c38565b90565b614ccd614cd291614cc76057614bf3565b90614c0f565b614c38565b90565b614cf2614cec614ce7601b8490610ad7565b6120d4565b15610a33565b614cfa575b50565b614d2490614d12614d0b601a612145565b82906121e4565b614d1f600191601b610ad7565b612106565b5f614cf7565b90614d5c614d7193614d54614d6b93614d4f8391614d4a601c89906126d8565b610da7565b611a52565b92601d610da7565b91614d6683611842565b61209b565b90611a52565b565b614d7c5f61178b565b5b80614d99614d93614d8e601a612528565b6103c0565b916103c0565b1015614f4557614db4614dae601a83906126b0565b90610f4a565b614dc8614dc3601d8390610da7565b611842565b91614dd25f61178b565b5b80614def614de9614de4601a612528565b6103c0565b916103c0565b1015614e3e57614e3990614e34614e11614e0b601a84906126b0565b90610f4a565b614e2f614e1d5f61178b565b91614e2a601f89906126d8565b610da7565b611a52565b6126a1565b614dd3565b509180614e53614e4d5f61178b565b916103c0565b11614e69575b5050614e64906126a1565b614d7d565b909192614e755f61178b565b5b80614e92614e8c614e87601a612528565b6103c0565b916103c0565b1015614f3557614ef090614eb1614eab601a83906126b0565b90610f4a565b614ecf614eca614ec3601c89906126d8565b8390610da7565b611842565b9081614ee3614edd5f61178b565b916103c0565b11614ef5575b50506126a1565b614e76565b614f29614f17614f10614f2e94614f0a614a8d565b906126ee565b8890613723565b91614f24601f8a906126d8565b610da7565b611a52565b5f80614ee9565b50929050614e649150905f614e59565b50565b614f50611d6b565b50614f5b601a612528565b614f64816140a3565b9181614f78614f725f61178b565b916103c0565b1461517457614f865f61178b565b90614f905f61178b565b915b82614fa5614f9f866103c0565b916103c0565b10156150795761504461504a91614fc7614fc1601a87906126b0565b90610f4a565b61502361501e615016614fda6003611842565b614fee614fe960098790610da7565b611842565b8061500a615004614fff6005611842565b6103c0565b916103c0565b11615069575b9061209b565b92600c610ad7565b6120d4565b615050575b61503e816150398a918990926140ea565b611f00565b9061209b565b926126a1565b91614f92565b6150649061505e6004611842565b9061209b565b615028565b506150746005611842565b615010565b909291508061509061508a5f61178b565b916103c0565b145f146150f557506150a15f61178b565b5b806150b56150af846103c0565b916103c0565b10156150f0576150eb906150e66150d46150cd614a8d565b8590613723565b6150e187918490926140ea565b611f00565b6126a1565b6150a2565b50505b565b90916151005f61178b565b5b8061511461510e866103c0565b916103c0565b101561516b576151669061516161514f61514861513a6151358a86906140ea565b6130ac565b615142614a8d565b906126ee565b8690613723565b61515c88918490926140ea565b611f00565b6126a1565b615101565b509150506150f3565b91905090565b919290926151866125fd565b506151905f61178b565b9261519a5f61178b565b6080526151a65f61178b565b5b806151c36151bd6151b8601a612528565b6103c0565b916103c0565b101561524057615214906151e26151dc601a83906126b0565b90610f4a565b6151f66151f1601d8390610da7565b611842565b6152086152025f61178b565b916103c0565b14615219575b506126a1565b6151a7565b61522f61522a61523792601e610da7565b611842565b60805161209b565b6080525f61520e565b50909192615256615251601a612528565b6140a3565b946152605f61178b565b5b8061527d615277615272601a612528565b6103c0565b916103c0565b10156152ce576152c9906152c46152b26152ad601e6152a76152a1601a87906126b0565b90610f4a565b90610da7565b611842565b6152bf8a918490926140ea565b611f00565b6126a1565b615261565b50919293906152dc5f61178b565b905b816152fa6152f46152ef601a612528565b6103c0565b916103c0565b10156155545761531561530f601a84906126b0565b90610f4a565b926153296153248985906140ea565b6130ac565b906153335f61178b565b9561533d5f61178b565b5b888a8261535c615356615351601a612528565b6103c0565b916103c0565b101561541f57505061539561539061538961538261537c601a86906126b0565b90610f4a565b601f6126d8565b8990610da7565b611842565b898c826153aa6153a45f61178b565b916103c0565b116153c1575b5050506153bc906126a1565b61533e565b6153f1615416936153ec869d946153e66153e16153bc99615410976140ea565b6130ac565b906126ee565b6126ee565b61540a6153fc614a8d565b615404614a8d565b906126ee565b90613723565b9061209b565b9790898c6153b0565b6154e69592506154ec969497996154a46154bb936154a9939b969b8d6154445f61178b565b9260805161545a6154545f61178b565b916103c0565b11615502575b9161548a6154856154909361547f61549e9661547a614a8d565b611971565b936140ea565b6130ac565b906126ee565b615498614a8d565b90613723565b9261209b565b61209b565b926154b68491601e610da7565b611a52565b806154ce6154c8846103c0565b916103c0565b115f146154f457906154df91611971565b5b9061209b565b936126a1565b9091926152de565b6154fd91611971565b6154e0565b925061549e9161548a6154856154909361547f61554661552589608051906126ee565b615540615530614a8d565b61553a601a612528565b906126ee565b90613723565b979496505093505050615460565b905061557891955061557d929450615583935093615572601a612528565b906126ee565b6103c0565b916103c0565b109056fea2646970667358221220815aef954dc6bf697039db383b7bbba0affe6740aa2fb52f0106cdfe6f7a7a6c64736f6c634300081e0033","linkReferences":{}},"methodIdentifiers":{"BASIS_POINTS()":"e1f1c4a7","SCALE()":"eced5526","SECONDS_PER_YEAR()":"e6a69ab8","addressToString(address)":"5e57966d","basePersonalization()":"4659c157","clearPageRankState()":"552c2857","clearPageRankStateEfficient()":"a7ab7c21","computeAttesterReward(uint256,address)":"c5fde85e","computePageRank()":"3b68c278","depositFunds(uint256)":"3b76594d","disburseLoan(uint256)":"b73e4da0","effrRate()":"c9d06a29","getAllLoanIds()":"5c1bf865","getAllPageRankScores()":"aede3324","getAttesters()":"4ed7e435","getBorrowerAttestations(address)":"21e0139d","getBorrowerLoanIds(address)":"1d123633","getBorrowers()":"6854786a","getBorrowersWithAttestations()":"dfd1e108","getCreditScore(address)":"d3dd2bdf","getFundingPoolAPY()":"b1a9ae81","getLenders()":"82926875","getLoan(uint256)":"504006ca","getLoanRate()":"cab98890","getMaxPageRankScore()":"d7a1815d","getPageRankScore(address)":"ad475a73","getPoolInfo()":"60246c88","isKYCVerified(address)":"54b7636e","kycBonus()":"449005e4","lenderCount()":"d2227acf","lenderDeposits(address)":"99398358","lendingUtilizationCap()":"3906acc6","markKYCVerified(address)":"3eae7a45","maxLoanAmount()":"72f94365","oracle()":"7dc0d1d0","owner()":"8da5cb5b","pagerankScores(address)":"6ff9e403","personalizationCap()":"6268b294","previewLoanTerms(address,uint256,uint256)":"b64660b6","recordAttestation(address,uint256)":"780a9cb8","registerBorrower(address)":"abad7426","repayLoan(uint256,uint256)":"8a700b53","requestLoan(uint256)":"8d5d3429","reservedLiquidity()":"9f308512","riskPremium()":"3e8b83c8","setBasePersonalization(uint256)":"a302db2a","setEffrRate(uint256)":"ad8615f0","setKycBonus(uint256)":"58d46eb6","setLendingUtilizationCap(uint256)":"eaf768dd","setMaxLoanAmount(uint256)":"b76e053b","setOracle(address)":"7adbf973","setPersonalizationCap(uint256)":"97fe008f","setRiskPremium(uint256)":"a117d729","totalDeposits()":"7d882097","totalLentOut()":"227a09c4","usdc()":"3e413bee","withdrawFunds(uint256)":"155dd5ee"},"id":36}